{
  "_format": "hh-sol-artifact-1",
  "contractName": "Factory",
  "sourceName": "contracts/Factory.sol",
  "abi": [
    {
      "inputs": [
        {
          "internalType": "address[]",
          "name": "_addresses",
          "type": "address[]"
        },
        {
          "internalType": "uint256",
          "name": "_quorem",
          "type": "uint256"
        }
      ],
      "stateMutability": "nonpayable",
      "type": "constructor"
    },
    {
      "anonymous": false,
      "inputs": [
        {
          "indexed": false,
          "internalType": "uint256",
          "name": "index",
          "type": "uint256"
        },
        {
          "indexed": true,
          "internalType": "address",
          "name": "sender",
          "type": "address"
        }
      ],
      "name": "WalletCreated",
      "type": "event"
    },
    {
      "inputs": [
        {
          "internalType": "address[]",
          "name": "_addresses",
          "type": "address[]"
        },
        {
          "internalType": "uint256",
          "name": "_quorem",
          "type": "uint256"
        }
      ],
      "name": "createNewWallet",
      "outputs": [],
      "stateMutability": "nonpayable",
      "type": "function"
    },
    {
      "inputs": [],
      "name": "getWalletList",
      "outputs": [
        {
          "internalType": "address[]",
          "name": "",
          "type": "address[]"
        }
      ],
      "stateMutability": "view",
      "type": "function"
    },
    {
      "inputs": [
        {
          "internalType": "uint256",
          "name": "",
          "type": "uint256"
        }
      ],
      "name": "walletArray",
      "outputs": [
        {
          "internalType": "contract MultiSigWallet",
          "name": "",
          "type": "address"
        }
      ],
      "stateMutability": "view",
      "type": "function"
    }
  ],
  "bytecode": "0x608060405234801561001057600080fd5b5060405161245b38038061245b83398101604081905261002f9161013f565b6100398282610040565b505061025c565b6000828260405161005090610100565b61005b92919061020b565b604051809103906000f080158015610077573d6000803e3d6000fd5b50600080546001810182559080527f290decd9548b62a8d60345a988386fc84ba6bc95484008f6362f93160ef3e563810180546001600160a01b0319166001600160a01b0384161790556040518181529192509033907f470292d5e9c87e6d5a100a14c56a434c9f25e9e2be1d5efa70c3b5f9aeda505f9060200160405180910390a250505050565b610ec28061159983390190565b634e487b7160e01b600052604160045260246000fd5b80516001600160a01b038116811461013a57600080fd5b919050565b6000806040838503121561015257600080fd5b82516001600160401b038082111561016957600080fd5b818501915085601f83011261017d57600080fd5b81516020828211156101915761019161010d565b8160051b604051601f19603f830116810181811086821117156101b6576101b661010d565b6040529283528183019350848101820192898411156101d457600080fd5b948201945b838610156101f9576101ea86610123565b855294820194938201936101d9565b97909101519698969750505050505050565b604080825283519082018190526000906020906060840190828701845b8281101561024d5781516001600160a01b031684529284019290840190600101610228565b50505092019290925292915050565b61132e8061026b6000396000f3fe608060405234801561001057600080fd5b50600436106100415760003560e01c8063cebac5e314610046578063d2de50721461005b578063fc9ffe021461008b575b600080fd5b610059610054366004610295565b6100a0565b005b61006e610069366004610360565b610160565b6040516001600160a01b0390911681526020015b60405180910390f35b61009361018a565b60405161008291906103bd565b600082826040516100b090610256565b6100bb9291906103d7565b604051809103906000f0801580156100d7573d6000803e3d6000fd5b50600080546001810182559080527f290decd9548b62a8d60345a988386fc84ba6bc95484008f6362f93160ef3e563810180546001600160a01b0319166001600160a01b0384161790556040518181529192509033907f470292d5e9c87e6d5a100a14c56a434c9f25e9e2be1d5efa70c3b5f9aeda505f9060200160405180910390a250505050565b6000818154811061017057600080fd5b6000918252602090912001546001600160a01b0316905081565b600080546060919067ffffffffffffffff8111156101aa576101aa610263565b6040519080825280602002602001820160405280156101d3578160200160208202803683370190505b50905060005b60005481101561025057600081815481106101f6576101f66103f9565b9060005260206000200160009054906101000a90046001600160a01b0316828281518110610226576102266103f9565b6001600160a01b0390921660209283029190910190910152806102488161040f565b9150506101d9565b50919050565b610ec28061043783390190565b634e487b7160e01b600052604160045260246000fd5b80356001600160a01b038116811461029057600080fd5b919050565b600080604083850312156102a857600080fd5b823567ffffffffffffffff808211156102c057600080fd5b818501915085601f8301126102d457600080fd5b81356020828211156102e8576102e8610263565b8160051b604051601f19603f8301168101818110868211171561030d5761030d610263565b60405292835281830193508481018201928984111561032b57600080fd5b948201945b838610156103505761034186610279565b85529482019493820193610330565b9997909101359750505050505050565b60006020828403121561037257600080fd5b5035919050565b600081518084526020808501945080840160005b838110156103b25781516001600160a01b03168752958201959082019060010161038d565b509495945050505050565b6020815260006103d06020830184610379565b9392505050565b6040815260006103ea6040830185610379565b90508260208301529392505050565b634e487b7160e01b600052603260045260246000fd5b60006001820161042f57634e487b7160e01b600052601160045260246000fd5b506001019056fe60806040523480156200001157600080fd5b5060405162000ec238038062000ec283398101604081905262000034916200027a565b60008251116200007d5760405162461bcd60e51b815260206004820152600f60248201526e1bdddb995c9cc81c995c5d5a5c9959608a1b60448201526064015b60405180910390fd5b6000811180156200008f575081518111155b620000e75760405162461bcd60e51b815260206004820152602160248201527f696e76616c6964206e756d626572206f662072657175697265642071756f72756044820152606d60f81b606482015260840162000074565b60005b82518110156200023c5760008382815181106200010b576200010b62000354565b6020026020010151905060006001600160a01b0316816001600160a01b031603620001695760405162461bcd60e51b815260206004820152600d60248201526c34b73b30b634b21037bbb732b960991b604482015260640162000074565b6001600160a01b03811660009081526001602052604090205460ff1615620001c75760405162461bcd60e51b815260206004820152601060248201526f6f776e6572206e6f7420756e6971756560801b604482015260640162000074565b6001600160a01b031660008181526001602081905260408220805460ff191682179055815490810182559080527f290decd9548b62a8d60345a988386fc84ba6bc95484008f6362f93160ef3e5630180546001600160a01b03191690911790558062000233816200036a565b915050620000ea565b506002555062000392565b634e487b7160e01b600052604160045260246000fd5b80516001600160a01b03811681146200027557600080fd5b919050565b600080604083850312156200028e57600080fd5b82516001600160401b0380821115620002a657600080fd5b818501915085601f830112620002bb57600080fd5b8151602082821115620002d257620002d262000247565b8160051b604051601f19603f83011681018181108682111715620002fa57620002fa62000247565b6040529283528183019350848101820192898411156200031957600080fd5b948201945b83861015620003425762000332866200025d565b855294820194938201936200031e565b97909101519698969750505050505050565b634e487b7160e01b600052603260045260246000fd5b6000600182016200038b57634e487b7160e01b600052601160045260246000fd5b5060010190565b610b2080620003a26000396000f3fe6080604052600436106100c65760003560e01c80635cc070761161007f5780639522059c116100595780639522059c146102a6578063a0e67e2b146102bc578063a9d31066146102de578063d0e30db0146102fe57600080fd5b80635cc07076146102285780636747dad714610274578063722713f71461029357600080fd5b8063025e7c271461010c5780631b671a40146101495780632f54bf6e1461016b5780633ebae36f146101ab5780634b465d74146101cb57806356c31637146101ed57600080fd5b36610107576040805134815247602082015233917f90890809c654f11d6e72a28fa60149770a0d11ec6c92319d6ceb2bb0a4ea1a15910160405180910390a2005b600080fd5b34801561011857600080fd5b5061012c6101273660046108ff565b610306565b6040516001600160a01b0390911681526020015b60405180910390f35b34801561015557600080fd5b506101696101643660046108ff565b610330565b005b34801561017757600080fd5b5061019b610186366004610930565b60016020526000908152604090205460ff1681565b6040519015158152602001610140565b3480156101b757600080fd5b506101696101c6366004610954565b610573565b3480156101d757600080fd5b506101e06106e3565b6040516101409190610980565b3480156101f957600080fd5b5061019b6102083660046109ef565b600360209081526000928352604080842090915290825290205460ff1681565b34801561023457600080fd5b506102486102433660046108ff565b610772565b604080516001600160a01b03909516855260208501939093529183015215156060820152608001610140565b34801561028057600080fd5b506004545b604051908152602001610140565b34801561029f57600080fd5b5047610285565b3480156102b257600080fd5b5061028560025481565b3480156102c857600080fd5b506102d16107b9565b6040516101409190610a1f565b3480156102ea57600080fd5b506102486102f93660046108ff565b61081b565b6101696108c3565b6000818154811061031657600080fd5b6000918252602090912001546001600160a01b0316905081565b3360009081526001602081905260409091205460ff1615151461036e5760405162461bcd60e51b815260040161036590610a6c565b60405180910390fd5b60045481908110610395576040516367e69d9960e11b815260048101829052602401610365565b6000828152600360209081526040808320338452909152902054829060ff16156103d5576040516335bb8f2560e11b815260048101829052602401610365565b82600481815481106103e9576103e9610aad565b600091825260209091206003600490920201015460ff161561042157604051631b344ee760e01b815260048101829052602401610365565b60006004858154811061043657610436610aad565b90600052602060002090600402019050600181600201600082825461045b9190610ac3565b909155505060008581526003602090815260408083203384529091529020805460ff1916600117905560028054908201541061056c5760038101805460ff191660019081179091558154908201546040516000926001600160a01b031691908381818185875af1925050503d80600081146104f2576040519150601f19603f3d011682016040523d82523d6000602084013e6104f7565b606091505b505090508061053d5760405162461bcd60e51b81526020600482015260126024820152711d1c985b9cd858dd1a5bdb8819985a5b195960721b6044820152606401610365565b604051869033907fe6266574c540a6eace832e59bc4fa1d3c8a6c570042f03f6eb69c252cb71395590600090a3505b5050505050565b3360009081526001602081905260409091205460ff161515146105a85760405162461bcd60e51b815260040161036590610a6c565b604080516080810182526001600160a01b038481168083526020808401868152600085870181815260608701828152600480546001810182559381905288517f8a35acfbc15ff81a39ae7d344fd709f28e8600b4aa8c65c6b64bfe7fe36bd19b91850291820180546001600160a01b031916919099161790975592517f8a35acfbc15ff81a39ae7d344fd709f28e8600b4aa8c65c6b64bfe7fe36bd19c870155517f8a35acfbc15ff81a39ae7d344fd709f28e8600b4aa8c65c6b64bfe7fe36bd19d86015590517f8a35acfbc15ff81a39ae7d344fd709f28e8600b4aa8c65c6b64bfe7fe36bd19e909401805460ff1916941515949094179093559351858152929391929091839133917f101a85d062d4f96045d6889441dd96dda5e818771df426a14e74d54b0ee9e1ce910160405180910390a450505050565b60606004805480602002602001604051908101604052809291908181526020016000905b82821015610769576000848152602090819020604080516080810182526004860290920180546001600160a01b03168352600180820154848601526002820154928401929092526003015460ff16151560608301529083529092019101610707565b50505050905090565b6004818154811061078257600080fd5b600091825260209091206004909102018054600182015460028301546003909301546001600160a01b039092169350919060ff1684565b6060600080548060200260200160405190810160405280929190818152602001828054801561081157602002820191906000526020600020905b81546001600160a01b031681526001909101906020018083116107f3575b5050505050905090565b60008060008084600480549050811061084a576040516367e69d9960e11b815260048101829052602401610365565b60006004878154811061085f5761085f610aad565b60009182526020918290206040805160808101825260049390930290910180546001600160a01b03168084526001820154948401859052600282015492840183905260039091015460ff16151560609093018390529a929950975095509350505050565b6040805134815247602082015233917f90890809c654f11d6e72a28fa60149770a0d11ec6c92319d6ceb2bb0a4ea1a15910160405180910390a2565b60006020828403121561091157600080fd5b5035919050565b6001600160a01b038116811461092d57600080fd5b50565b60006020828403121561094257600080fd5b813561094d81610918565b9392505050565b6000806040838503121561096757600080fd5b823561097281610918565b946020939093013593505050565b602080825282518282018190526000919060409081850190868401855b828110156109e257815180516001600160a01b03168552868101518786015285810151868601526060908101511515908501526080909301929085019060010161099d565b5091979650505050505050565b60008060408385031215610a0257600080fd5b823591506020830135610a1481610918565b809150509250929050565b6020808252825182820181905260009190848201906040850190845b81811015610a605783516001600160a01b031683529284019291840191600101610a3b565b50909695505050505050565b60208082526021908201527f41646472657373206d757374206265206f6e65206f6620746865206f776e65726040820152607360f81b606082015260800190565b634e487b7160e01b600052603260045260246000fd5b80820180821115610ae457634e487b7160e01b600052601160045260246000fd5b9291505056fea2646970667358221220f57e5d515e113346d1a400f6d04f51345c1999b0b6152898f57ce97035e35b4e64736f6c63430008110033a2646970667358221220ac89cc750805f956bbc28ea247a81e96fbf96fdfe6ef5d862c55d8ccb99fde5264736f6c6343000811003360806040523480156200001157600080fd5b5060405162000ec238038062000ec283398101604081905262000034916200027a565b60008251116200007d5760405162461bcd60e51b815260206004820152600f60248201526e1bdddb995c9cc81c995c5d5a5c9959608a1b60448201526064015b60405180910390fd5b6000811180156200008f575081518111155b620000e75760405162461bcd60e51b815260206004820152602160248201527f696e76616c6964206e756d626572206f662072657175697265642071756f72756044820152606d60f81b606482015260840162000074565b60005b82518110156200023c5760008382815181106200010b576200010b62000354565b6020026020010151905060006001600160a01b0316816001600160a01b031603620001695760405162461bcd60e51b815260206004820152600d60248201526c34b73b30b634b21037bbb732b960991b604482015260640162000074565b6001600160a01b03811660009081526001602052604090205460ff1615620001c75760405162461bcd60e51b815260206004820152601060248201526f6f776e6572206e6f7420756e6971756560801b604482015260640162000074565b6001600160a01b031660008181526001602081905260408220805460ff191682179055815490810182559080527f290decd9548b62a8d60345a988386fc84ba6bc95484008f6362f93160ef3e5630180546001600160a01b03191690911790558062000233816200036a565b915050620000ea565b506002555062000392565b634e487b7160e01b600052604160045260246000fd5b80516001600160a01b03811681146200027557600080fd5b919050565b600080604083850312156200028e57600080fd5b82516001600160401b0380821115620002a657600080fd5b818501915085601f830112620002bb57600080fd5b8151602082821115620002d257620002d262000247565b8160051b604051601f19603f83011681018181108682111715620002fa57620002fa62000247565b6040529283528183019350848101820192898411156200031957600080fd5b948201945b83861015620003425762000332866200025d565b855294820194938201936200031e565b97909101519698969750505050505050565b634e487b7160e01b600052603260045260246000fd5b6000600182016200038b57634e487b7160e01b600052601160045260246000fd5b5060010190565b610b2080620003a26000396000f3fe6080604052600436106100c65760003560e01c80635cc070761161007f5780639522059c116100595780639522059c146102a6578063a0e67e2b146102bc578063a9d31066146102de578063d0e30db0146102fe57600080fd5b80635cc07076146102285780636747dad714610274578063722713f71461029357600080fd5b8063025e7c271461010c5780631b671a40146101495780632f54bf6e1461016b5780633ebae36f146101ab5780634b465d74146101cb57806356c31637146101ed57600080fd5b36610107576040805134815247602082015233917f90890809c654f11d6e72a28fa60149770a0d11ec6c92319d6ceb2bb0a4ea1a15910160405180910390a2005b600080fd5b34801561011857600080fd5b5061012c6101273660046108ff565b610306565b6040516001600160a01b0390911681526020015b60405180910390f35b34801561015557600080fd5b506101696101643660046108ff565b610330565b005b34801561017757600080fd5b5061019b610186366004610930565b60016020526000908152604090205460ff1681565b6040519015158152602001610140565b3480156101b757600080fd5b506101696101c6366004610954565b610573565b3480156101d757600080fd5b506101e06106e3565b6040516101409190610980565b3480156101f957600080fd5b5061019b6102083660046109ef565b600360209081526000928352604080842090915290825290205460ff1681565b34801561023457600080fd5b506102486102433660046108ff565b610772565b604080516001600160a01b03909516855260208501939093529183015215156060820152608001610140565b34801561028057600080fd5b506004545b604051908152602001610140565b34801561029f57600080fd5b5047610285565b3480156102b257600080fd5b5061028560025481565b3480156102c857600080fd5b506102d16107b9565b6040516101409190610a1f565b3480156102ea57600080fd5b506102486102f93660046108ff565b61081b565b6101696108c3565b6000818154811061031657600080fd5b6000918252602090912001546001600160a01b0316905081565b3360009081526001602081905260409091205460ff1615151461036e5760405162461bcd60e51b815260040161036590610a6c565b60405180910390fd5b60045481908110610395576040516367e69d9960e11b815260048101829052602401610365565b6000828152600360209081526040808320338452909152902054829060ff16156103d5576040516335bb8f2560e11b815260048101829052602401610365565b82600481815481106103e9576103e9610aad565b600091825260209091206003600490920201015460ff161561042157604051631b344ee760e01b815260048101829052602401610365565b60006004858154811061043657610436610aad565b90600052602060002090600402019050600181600201600082825461045b9190610ac3565b909155505060008581526003602090815260408083203384529091529020805460ff1916600117905560028054908201541061056c5760038101805460ff191660019081179091558154908201546040516000926001600160a01b031691908381818185875af1925050503d80600081146104f2576040519150601f19603f3d011682016040523d82523d6000602084013e6104f7565b606091505b505090508061053d5760405162461bcd60e51b81526020600482015260126024820152711d1c985b9cd858dd1a5bdb8819985a5b195960721b6044820152606401610365565b604051869033907fe6266574c540a6eace832e59bc4fa1d3c8a6c570042f03f6eb69c252cb71395590600090a3505b5050505050565b3360009081526001602081905260409091205460ff161515146105a85760405162461bcd60e51b815260040161036590610a6c565b604080516080810182526001600160a01b038481168083526020808401868152600085870181815260608701828152600480546001810182559381905288517f8a35acfbc15ff81a39ae7d344fd709f28e8600b4aa8c65c6b64bfe7fe36bd19b91850291820180546001600160a01b031916919099161790975592517f8a35acfbc15ff81a39ae7d344fd709f28e8600b4aa8c65c6b64bfe7fe36bd19c870155517f8a35acfbc15ff81a39ae7d344fd709f28e8600b4aa8c65c6b64bfe7fe36bd19d86015590517f8a35acfbc15ff81a39ae7d344fd709f28e8600b4aa8c65c6b64bfe7fe36bd19e909401805460ff1916941515949094179093559351858152929391929091839133917f101a85d062d4f96045d6889441dd96dda5e818771df426a14e74d54b0ee9e1ce910160405180910390a450505050565b60606004805480602002602001604051908101604052809291908181526020016000905b82821015610769576000848152602090819020604080516080810182526004860290920180546001600160a01b03168352600180820154848601526002820154928401929092526003015460ff16151560608301529083529092019101610707565b50505050905090565b6004818154811061078257600080fd5b600091825260209091206004909102018054600182015460028301546003909301546001600160a01b039092169350919060ff1684565b6060600080548060200260200160405190810160405280929190818152602001828054801561081157602002820191906000526020600020905b81546001600160a01b031681526001909101906020018083116107f3575b5050505050905090565b60008060008084600480549050811061084a576040516367e69d9960e11b815260048101829052602401610365565b60006004878154811061085f5761085f610aad565b60009182526020918290206040805160808101825260049390930290910180546001600160a01b03168084526001820154948401859052600282015492840183905260039091015460ff16151560609093018390529a929950975095509350505050565b6040805134815247602082015233917f90890809c654f11d6e72a28fa60149770a0d11ec6c92319d6ceb2bb0a4ea1a15910160405180910390a2565b60006020828403121561091157600080fd5b5035919050565b6001600160a01b038116811461092d57600080fd5b50565b60006020828403121561094257600080fd5b813561094d81610918565b9392505050565b6000806040838503121561096757600080fd5b823561097281610918565b946020939093013593505050565b602080825282518282018190526000919060409081850190868401855b828110156109e257815180516001600160a01b03168552868101518786015285810151868601526060908101511515908501526080909301929085019060010161099d565b5091979650505050505050565b60008060408385031215610a0257600080fd5b823591506020830135610a1481610918565b809150509250929050565b6020808252825182820181905260009190848201906040850190845b81811015610a605783516001600160a01b031683529284019291840191600101610a3b565b50909695505050505050565b60208082526021908201527f41646472657373206d757374206265206f6e65206f6620746865206f776e65726040820152607360f81b606082015260800190565b634e487b7160e01b600052603260045260246000fd5b80820180821115610ae457634e487b7160e01b600052601160045260246000fd5b9291505056fea2646970667358221220f57e5d515e113346d1a400f6d04f51345c1999b0b6152898f57ce97035e35b4e64736f6c63430008110033",
  "linkReferences": {},
  "deployedLinkReferences": {}
}