{
  "_format": "hh-sol-artifact-1",
  "contractName": "MultiSigWallet",
  "sourceName": "contracts/MultiSigWallet.sol",
  "abi": [
    {
      "inputs": [
        {
          "internalType": "address[]",
          "name": "_owners",
          "type": "address[]"
        },
        {
          "internalType": "uint256",
          "name": "_quoremRequired",
          "type": "uint256"
        }
      ],
      "stateMutability": "nonpayable",
      "type": "constructor"
    },
    {
      "inputs": [
        {
          "internalType": "uint256",
          "name": "transactionIndex",
          "type": "uint256"
        }
      ],
      "name": "TxAlreadyApproved",
      "type": "error"
    },
    {
      "inputs": [
        {
          "internalType": "uint256",
          "name": "transactionIndex",
          "type": "uint256"
        }
      ],
      "name": "TxAlreadySent",
      "type": "error"
    },
    {
      "inputs": [
        {
          "internalType": "uint256",
          "name": "transactionIndex",
          "type": "uint256"
        }
      ],
      "name": "TxNotExists",
      "type": "error"
    },
    {
      "anonymous": false,
      "inputs": [
        {
          "indexed": true,
          "internalType": "address",
          "name": "owner",
          "type": "address"
        },
        {
          "indexed": true,
          "internalType": "uint256",
          "name": "transactionIndex",
          "type": "uint256"
        }
      ],
      "name": "ApproveWithdrawTx",
      "type": "event"
    },
    {
      "anonymous": false,
      "inputs": [
        {
          "indexed": true,
          "internalType": "address",
          "name": "owner",
          "type": "address"
        },
        {
          "indexed": true,
          "internalType": "uint256",
          "name": "transactionindex",
          "type": "uint256"
        },
        {
          "indexed": true,
          "internalType": "address",
          "name": "to",
          "type": "address"
        },
        {
          "indexed": false,
          "internalType": "uint256",
          "name": "amount",
          "type": "uint256"
        }
      ],
      "name": "CreateWithdrawTx",
      "type": "event"
    },
    {
      "anonymous": false,
      "inputs": [
        {
          "indexed": true,
          "internalType": "address",
          "name": "sender",
          "type": "address"
        },
        {
          "indexed": false,
          "internalType": "uint256",
          "name": "amount",
          "type": "uint256"
        },
        {
          "indexed": false,
          "internalType": "uint256",
          "name": "balance",
          "type": "uint256"
        }
      ],
      "name": "Deposit",
      "type": "event"
    },
    {
      "inputs": [
        {
          "internalType": "uint256",
          "name": "_txnIndex",
          "type": "uint256"
        }
      ],
      "name": "approveWithdrawTx",
      "outputs": [],
      "stateMutability": "nonpayable",
      "type": "function"
    },
    {
      "inputs": [],
      "name": "balanceOf",
      "outputs": [
        {
          "internalType": "uint256",
          "name": "",
          "type": "uint256"
        }
      ],
      "stateMutability": "view",
      "type": "function"
    },
    {
      "inputs": [
        {
          "internalType": "address payable",
          "name": "_to",
          "type": "address"
        },
        {
          "internalType": "uint256",
          "name": "_amount",
          "type": "uint256"
        }
      ],
      "name": "createWithdrawTx",
      "outputs": [],
      "stateMutability": "nonpayable",
      "type": "function"
    },
    {
      "inputs": [],
      "name": "deposit",
      "outputs": [],
      "stateMutability": "payable",
      "type": "function"
    },
    {
      "inputs": [],
      "name": "getOwners",
      "outputs": [
        {
          "internalType": "address[]",
          "name": "",
          "type": "address[]"
        }
      ],
      "stateMutability": "view",
      "type": "function"
    },
    {
      "inputs": [
        {
          "internalType": "uint256",
          "name": "txnIndex",
          "type": "uint256"
        }
      ],
      "name": "getWithdrawTx",
      "outputs": [
        {
          "internalType": "address",
          "name": "",
          "type": "address"
        },
        {
          "internalType": "uint256",
          "name": "",
          "type": "uint256"
        },
        {
          "internalType": "uint256",
          "name": "",
          "type": "uint256"
        },
        {
          "internalType": "bool",
          "name": "",
          "type": "bool"
        }
      ],
      "stateMutability": "view",
      "type": "function"
    },
    {
      "inputs": [],
      "name": "getWithdrawTxCount",
      "outputs": [
        {
          "internalType": "uint256",
          "name": "",
          "type": "uint256"
        }
      ],
      "stateMutability": "view",
      "type": "function"
    },
    {
      "inputs": [],
      "name": "getWithdrawTxes",
      "outputs": [
        {
          "components": [
            {
              "internalType": "address payable",
              "name": "to",
              "type": "address"
            },
            {
              "internalType": "uint256",
              "name": "amount",
              "type": "uint256"
            },
            {
              "internalType": "uint256",
              "name": "approvals",
              "type": "uint256"
            },
            {
              "internalType": "bool",
              "name": "sent",
              "type": "bool"
            }
          ],
          "internalType": "struct MultiSigWallet.WithdrawTx[]",
          "name": "",
          "type": "tuple[]"
        }
      ],
      "stateMutability": "view",
      "type": "function"
    },
    {
      "inputs": [
        {
          "internalType": "uint256",
          "name": "",
          "type": "uint256"
        },
        {
          "internalType": "address",
          "name": "",
          "type": "address"
        }
      ],
      "name": "isApproved",
      "outputs": [
        {
          "internalType": "bool",
          "name": "",
          "type": "bool"
        }
      ],
      "stateMutability": "view",
      "type": "function"
    },
    {
      "inputs": [
        {
          "internalType": "address",
          "name": "",
          "type": "address"
        }
      ],
      "name": "isOwner",
      "outputs": [
        {
          "internalType": "bool",
          "name": "",
          "type": "bool"
        }
      ],
      "stateMutability": "view",
      "type": "function"
    },
    {
      "inputs": [
        {
          "internalType": "uint256",
          "name": "",
          "type": "uint256"
        }
      ],
      "name": "owners",
      "outputs": [
        {
          "internalType": "address",
          "name": "",
          "type": "address"
        }
      ],
      "stateMutability": "view",
      "type": "function"
    },
    {
      "inputs": [],
      "name": "quoremRequired",
      "outputs": [
        {
          "internalType": "uint256",
          "name": "",
          "type": "uint256"
        }
      ],
      "stateMutability": "view",
      "type": "function"
    },
    {
      "inputs": [
        {
          "internalType": "uint256",
          "name": "",
          "type": "uint256"
        }
      ],
      "name": "withdrawals",
      "outputs": [
        {
          "internalType": "address payable",
          "name": "to",
          "type": "address"
        },
        {
          "internalType": "uint256",
          "name": "amount",
          "type": "uint256"
        },
        {
          "internalType": "uint256",
          "name": "approvals",
          "type": "uint256"
        },
        {
          "internalType": "bool",
          "name": "sent",
          "type": "bool"
        }
      ],
      "stateMutability": "view",
      "type": "function"
    },
    {
      "stateMutability": "payable",
      "type": "receive"
    }
  ],
  "bytecode": "0x60a06040523480156200001157600080fd5b5060405162000f1238038062000f1283398101604081905262000034916200027a565b60008251116200007d5760405162461bcd60e51b815260206004820152600f60248201526e1bdddb995c9cc81c995c5d5a5c9959608a1b60448201526064015b60405180910390fd5b6000811180156200008f575081518111155b620000e75760405162461bcd60e51b815260206004820152602160248201527f696e76616c6964206e756d626572206f662072657175697265642071756f72756044820152606d60f81b606482015260840162000074565b60005b82518110156200023c5760008382815181106200010b576200010b62000354565b6020026020010151905060006001600160a01b0316816001600160a01b031603620001695760405162461bcd60e51b815260206004820152600d60248201526c34b73b30b634b21037bbb732b960991b604482015260640162000074565b6001600160a01b03811660009081526001602052604090205460ff1615620001c75760405162461bcd60e51b815260206004820152601060248201526f6f776e6572206e6f7420756e6971756560801b604482015260640162000074565b6001600160a01b031660008181526001602081905260408220805460ff191682179055815490810182559080527f290decd9548b62a8d60345a988386fc84ba6bc95484008f6362f93160ef3e5630180546001600160a01b03191690911790558062000233816200036a565b915050620000ea565b506080525062000392565b634e487b7160e01b600052604160045260246000fd5b80516001600160a01b03811681146200027557600080fd5b919050565b600080604083850312156200028e57600080fd5b82516001600160401b0380821115620002a657600080fd5b818501915085601f830112620002bb57600080fd5b8151602082821115620002d257620002d262000247565b8160051b604051601f19603f83011681018181108682111715620002fa57620002fa62000247565b6040529283528183019350848101820192898411156200031957600080fd5b948201945b83861015620003425762000332866200025d565b855294820194938201936200031e565b97909101519698969750505050505050565b634e487b7160e01b600052603260045260246000fd5b6000600182016200038b57634e487b7160e01b600052601160045260246000fd5b5060010190565b608051610b5d620003b5600039600081816102b801526104a80152610b5d6000f3fe6080604052600436106100c65760003560e01c80635cc070761161007f5780639522059c116100595780639522059c146102a6578063a0e67e2b146102da578063a9d31066146102fc578063d0e30db01461031c57600080fd5b80635cc07076146102285780636747dad714610274578063722713f71461029357600080fd5b8063025e7c271461010c5780631b671a40146101495780632f54bf6e1461016b5780633ebae36f146101ab5780634b465d74146101cb57806356c31637146101ed57600080fd5b36610107576040805134815247602082015233917f90890809c654f11d6e72a28fa60149770a0d11ec6c92319d6ceb2bb0a4ea1a15910160405180910390a2005b600080fd5b34801561011857600080fd5b5061012c61012736600461093c565b610324565b6040516001600160a01b0390911681526020015b60405180910390f35b34801561015557600080fd5b5061016961016436600461093c565b61034e565b005b34801561017757600080fd5b5061019b61018636600461096d565b60016020526000908152604090205460ff1681565b6040519015158152602001610140565b3480156101b757600080fd5b506101696101c6366004610991565b6105ae565b3480156101d757600080fd5b506101e0610720565b60405161014091906109bd565b3480156101f957600080fd5b5061019b610208366004610a2c565b600260209081526000928352604080842090915290825290205460ff1681565b34801561023457600080fd5b5061024861024336600461093c565b6107af565b604080516001600160a01b03909516855260208501939093529183015215156060820152608001610140565b34801561028057600080fd5b506003545b604051908152602001610140565b34801561029f57600080fd5b5047610285565b3480156102b257600080fd5b506102857f000000000000000000000000000000000000000000000000000000000000000081565b3480156102e657600080fd5b506102ef6107f6565b6040516101409190610a5c565b34801561030857600080fd5b5061024861031736600461093c565b610858565b610169610900565b6000818154811061033457600080fd5b6000918252602090912001546001600160a01b0316905081565b3360009081526001602081905260409091205460ff1615151461038c5760405162461bcd60e51b815260040161038390610aa9565b60405180910390fd5b600354819081106103b3576040516367e69d9960e11b815260048101829052602401610383565b6000828152600260209081526040808320338452909152902054829060ff16156103f3576040516335bb8f2560e11b815260048101829052602401610383565b826003818154811061040757610407610aea565b600091825260209091206003600490920201015460ff161561043f57604051631b344ee760e01b815260048101829052602401610383565b60008481526002602090815260408083203384529091528120805460ff19166001179055600380548690811061047757610477610aea565b90600052602060002090600402019050600181600201600082825461049c9190610b00565b909155505060028101547f0000000000000000000000000000000000000000000000000000000000000000116105a75760038101805460ff191660019081179091558154908201546040516000926001600160a01b031691908381818185875af1925050503d806000811461052d576040519150601f19603f3d011682016040523d82523d6000602084013e610532565b606091505b50509050806105785760405162461bcd60e51b81526020600482015260126024820152711d1c985b9cd858dd1a5bdb8819985a5b195960721b6044820152606401610383565b604051869033907fe6266574c540a6eace832e59bc4fa1d3c8a6c570042f03f6eb69c252cb71395590600090a3505b5050505050565b3360009081526001602081905260409091205460ff161515146105e35760405162461bcd60e51b815260040161038390610aa9565b604080516080810182526001600160a01b03848116808352602080840186815260008587018181526060870182815260038054600181018255935287517fc2575a0e9e593c00f959f8c92f12db2869c3395a3b0502d05e2516446f71f85b6004850290810180546001600160a01b031916929099169190911790975592517fc2575a0e9e593c00f959f8c92f12db2869c3395a3b0502d05e2516446f71f85c870155517fc2575a0e9e593c00f959f8c92f12db2869c3395a3b0502d05e2516446f71f85d86015590517fc2575a0e9e593c00f959f8c92f12db2869c3395a3b0502d05e2516446f71f85e909401805460ff1916941515949094179093559351858152929391929091839133917f101a85d062d4f96045d6889441dd96dda5e818771df426a14e74d54b0ee9e1ce910160405180910390a450505050565b60606003805480602002602001604051908101604052809291908181526020016000905b828210156107a6576000848152602090819020604080516080810182526004860290920180546001600160a01b03168352600180820154848601526002820154928401929092526003015460ff16151560608301529083529092019101610744565b50505050905090565b600381815481106107bf57600080fd5b600091825260209091206004909102018054600182015460028301546003909301546001600160a01b039092169350919060ff1684565b6060600080548060200260200160405190810160405280929190818152602001828054801561084e57602002820191906000526020600020905b81546001600160a01b03168152600190910190602001808311610830575b5050505050905090565b600080600080846003805490508110610887576040516367e69d9960e11b815260048101829052602401610383565b60006003878154811061089c5761089c610aea565b60009182526020918290206040805160808101825260049390930290910180546001600160a01b03168084526001820154948401859052600282015492840183905260039091015460ff16151560609093018390529a929950975095509350505050565b6040805134815247602082015233917f90890809c654f11d6e72a28fa60149770a0d11ec6c92319d6ceb2bb0a4ea1a15910160405180910390a2565b60006020828403121561094e57600080fd5b5035919050565b6001600160a01b038116811461096a57600080fd5b50565b60006020828403121561097f57600080fd5b813561098a81610955565b9392505050565b600080604083850312156109a457600080fd5b82356109af81610955565b946020939093013593505050565b602080825282518282018190526000919060409081850190868401855b82811015610a1f57815180516001600160a01b0316855286810151878601528581015186860152606090810151151590850152608090930192908501906001016109da565b5091979650505050505050565b60008060408385031215610a3f57600080fd5b823591506020830135610a5181610955565b809150509250929050565b6020808252825182820181905260009190848201906040850190845b81811015610a9d5783516001600160a01b031683529284019291840191600101610a78565b50909695505050505050565b60208082526021908201527f41646472657373206d757374206265206f6e65206f6620746865206f776e65726040820152607360f81b606082015260800190565b634e487b7160e01b600052603260045260246000fd5b80820180821115610b2157634e487b7160e01b600052601160045260246000fd5b9291505056fea2646970667358221220f1bfd8fe6c517fe53053b80c51df9917d76c426369052a63494388d26fb925b964736f6c63430008120033",
  "linkReferences": {},
  "deployedLinkReferences": {}
}